{
  "contractName": "CrowdSaleApp",
  "abi": [
    {
      "constant": true,
      "inputs": [],
      "name": "owner",
      "outputs": [
        {
          "name": "",
          "type": "address"
        }
      ],
      "payable": false,
      "stateMutability": "view",
      "type": "function"
    },
    {
      "constant": true,
      "inputs": [
        {
          "name": "",
          "type": "address"
        }
      ],
      "name": "creators",
      "outputs": [
        {
          "name": "",
          "type": "string"
        }
      ],
      "payable": false,
      "stateMutability": "view",
      "type": "function"
    },
    {
      "inputs": [],
      "payable": false,
      "stateMutability": "nonpayable",
      "type": "constructor"
    },
    {
      "anonymous": false,
      "inputs": [
        {
          "indexed": false,
          "name": "contractAddr",
          "type": "address"
        },
        {
          "indexed": true,
          "name": "creator",
          "type": "address"
        },
        {
          "indexed": false,
          "name": "title",
          "type": "string"
        },
        {
          "indexed": false,
          "name": "description",
          "type": "string"
        },
        {
          "indexed": false,
          "name": "fundingGoalInEthers",
          "type": "uint256"
        },
        {
          "indexed": false,
          "name": "durationInMinutes",
          "type": "uint256"
        },
        {
          "indexed": false,
          "name": "thumbnailHash",
          "type": "string"
        }
      ],
      "name": "LogCrowdSaleCreated",
      "type": "event"
    },
    {
      "anonymous": false,
      "inputs": [
        {
          "indexed": true,
          "name": "creator",
          "type": "address"
        },
        {
          "indexed": false,
          "name": "contentHash",
          "type": "string"
        }
      ],
      "name": "LogCreatorCreated",
      "type": "event"
    },
    {
      "constant": false,
      "inputs": [
        {
          "name": "_title",
          "type": "string"
        },
        {
          "name": "_description",
          "type": "string"
        },
        {
          "name": "_fundingGoalInEthers",
          "type": "uint256"
        },
        {
          "name": "_durationInMinutes",
          "type": "uint256"
        },
        {
          "name": "_thumbnailHash",
          "type": "string"
        }
      ],
      "name": "createCrowdSale",
      "outputs": [
        {
          "name": "",
          "type": "bool"
        }
      ],
      "payable": false,
      "stateMutability": "nonpayable",
      "type": "function"
    },
    {
      "constant": false,
      "inputs": [
        {
          "name": "_infoHash",
          "type": "string"
        }
      ],
      "name": "createCreator",
      "outputs": [],
      "payable": false,
      "stateMutability": "nonpayable",
      "type": "function"
    }
  ],
  "bytecode": "0x608060405234801561001057600080fd5b50336000806101000a81548173ffffffffffffffffffffffffffffffffffffffff021916908373ffffffffffffffffffffffffffffffffffffffff160217905550611938806100606000396000f300608060405260043610610062576000357c0100000000000000000000000000000000000000000000000000000000900463ffffffff1680630af1aeb7146100675780638da5cb5b146100d0578063933166e114610127578063ec8a9ce9146101e3575b600080fd5b34801561007357600080fd5b506100ce600480360381019080803590602001908201803590602001908080601f0160208091040260200160405190810160405280939291908181526020018383808284378201915050505050509192919290505050610304565b005b3480156100dc57600080fd5b506100e561040e565b604051808273ffffffffffffffffffffffffffffffffffffffff1673ffffffffffffffffffffffffffffffffffffffff16815260200191505060405180910390f35b34801561013357600080fd5b50610168600480360381019080803573ffffffffffffffffffffffffffffffffffffffff169060200190929190505050610433565b6040518080602001828103825283818151815260200191508051906020019080838360005b838110156101a857808201518184015260208101905061018d565b50505050905090810190601f1680156101d55780820380516001836020036101000a031916815260200191505b509250505060405180910390f35b3480156101ef57600080fd5b506102ea600480360381019080803590602001908201803590602001908080601f0160208091040260200160405190810160405280939291908181526020018383808284378201915050505050509192919290803590602001908201803590602001908080601f01602080910402602001604051908101604052809392919081815260200183838082843782019150505050505091929192908035906020019092919080359060200190929190803590602001908201803590602001908080601f01602080910402602001604051908101604052809392919081815260200183838082843782019150505050505091929192905050506104e3565b604051808215151515815260200191505060405180910390f35b80600160003373ffffffffffffffffffffffffffffffffffffffff1673ffffffffffffffffffffffffffffffffffffffff1681526020019081526020016000209080519060200190610357929190610933565b503373ffffffffffffffffffffffffffffffffffffffff167f26ae95d32c0c77540fc8b045fa80cb0a034b3c2b4d34562c6a82e2768d92dedb826040518080602001828103825283818151815260200191508051906020019080838360005b838110156103d15780820151818401526020810190506103b6565b50505050905090810190601f1680156103fe5780820380516001836020036101000a031916815260200191505b509250505060405180910390a250565b6000809054906101000a900473ffffffffffffffffffffffffffffffffffffffff1681565b60016020528060005260406000206000915090508054600181600116156101000203166002900480601f0160208091040260200160405190810160405280929190818152602001828054600181600116156101000203166002900480156104db5780601f106104b0576101008083540402835291602001916104db565b820191906000526020600020905b8154815290600101906020018083116104be57829003601f168201915b505050505081565b6000806060600160003373ffffffffffffffffffffffffffffffffffffffff1673ffffffffffffffffffffffffffffffffffffffff1681526020019081526020016000208054600181600116156101000203166002900480601f0160208091040260200160405190810160405280929190818152602001828054600181600116156101000203166002900480156105bb5780601f10610590576101008083540402835291602001916105bb565b820191906000526020600020905b81548152906001019060200180831161059e57829003601f168201915b50505050509050600081511115156105d257600080fd5b87878787876105df6109b3565b80806020018060200186815260200185815260200180602001848103845289818151815260200191508051906020019080838360005b83811015610630578082015181840152602081019050610615565b50505050905090810190601f16801561065d5780820380516001836020036101000a031916815260200191505b50848103835288818151815260200191508051906020019080838360005b8381101561069657808201518184015260208101905061067b565b50505050905090810190601f1680156106c35780820380516001836020036101000a031916815260200191505b50848103825285818151815260200191508051906020019080838360005b838110156106fc5780820151818401526020810190506106e1565b50505050905090810190601f1680156107295780820380516001836020036101000a031916815260200191505b5098505050505050505050604051809103906000f080158015610750573d6000803e3d6000fd5b5091503373ffffffffffffffffffffffffffffffffffffffff167f3a15c76d4e232f78c5f39d4185a8ac30c7d57ffc9af3993f6818825a7061b1f6838a8a8a8a8a604051808773ffffffffffffffffffffffffffffffffffffffff1673ffffffffffffffffffffffffffffffffffffffff168152602001806020018060200186815260200185815260200180602001848103845289818151815260200191508051906020019080838360005b838110156108175780820151818401526020810190506107fc565b50505050905090810190601f1680156108445780820380516001836020036101000a031916815260200191505b50848103835288818151815260200191508051906020019080838360005b8381101561087d578082015181840152602081019050610862565b50505050905090810190601f1680156108aa5780820380516001836020036101000a031916815260200191505b50848103825285818151815260200191508051906020019080838360005b838110156108e35780820151818401526020810190506108c8565b50505050905090810190601f1680156109105780820380516001836020036101000a031916815260200191505b50995050505050505050505060405180910390a260019250505095945050505050565b828054600181600116156101000203166002900490600052602060002090601f016020900481019282601f1061097457805160ff19168380011785556109a2565b828001600101855582156109a2579182015b828111156109a1578251825591602001919060010190610986565b5b5090506109af91906109c3565b5090565b604051610f24806109e983390190565b6109e591905b808211156109e15760008160009055506001016109c9565b5090565b90560060806040526000600760006101000a81548160ff0219169083151502179055506000600760016101000a81548160ff021916908315150217905550604051610f24380380610f248339810180604052810190808051820192919060200180518201929190602001805190602001909291908051906020019092919080518201929190505050336000806101000a81548173ffffffffffffffffffffffffffffffffffffffff021916908373ffffffffffffffffffffffffffffffffffffffff16021790555084600190805190602001906100da929190610130565b5083600290805190602001906100f1929190610130565b50670de0b6b3a76400008302600381905550603c820242016005819055508060069080519060200190610125929190610130565b5050505050506101d5565b828054600181600116156101000203166002900490600052602060002090601f016020900481019282601f1061017157805160ff191683800117855561019f565b8280016001018555821561019f579182015b8281111561019e578251825591602001919060010190610183565b5b5090506101ac91906101b0565b5090565b6101d291905b808211156101ce5760008160009055506001016101b6565b5090565b90565b610d40806101e46000396000f3006080604052600436106100e6576000357c0100000000000000000000000000000000000000000000000000000000900463ffffffff16806301cb3b20146101c157806329dcb0cf146101d85780633cb5d100146102035780634a6cdce1146102705780634a79d50c146102875780635afc2ab4146103175780635f1c1a97146103a757806370a08231146103d65780637284e4161461042d57806377b1da93146104bd5780637a3a0e84146104ec5780637b3e5e7b146105175780638da5cb5b14610542578063d424f62814610599578063f251fc8c146105c8578063fd6b7ef8146105f3575b6000600760019054906101000a900460ff1615151561010457600080fd5b34905061010f61060a565b80600860003373ffffffffffffffffffffffffffffffffffffffff1673ffffffffffffffffffffffffffffffffffffffff1681526020019081526020016000206000828254019250508190555080600460008282540192505081905550600115153373ffffffffffffffffffffffffffffffffffffffff167fc6c8cdc73e475586adbde0de9cf617d7015acc6e38598292ea9033a73dbc868c836040518082815260200191505060405180910390a350005b3480156101cd57600080fd5b506101d66106bb565b005b3480156101e457600080fd5b506101ed61077e565b6040518082815260200191505060405180910390f35b34801561020f57600080fd5b5061022e60048036038101908080359060200190929190505050610784565b604051808273ffffffffffffffffffffffffffffffffffffffff1673ffffffffffffffffffffffffffffffffffffffff16815260200191505060405180910390f35b34801561027c57600080fd5b5061028561060a565b005b34801561029357600080fd5b5061029c6107c2565b6040518080602001828103825283818151815260200191508051906020019080838360005b838110156102dc5780820151818401526020810190506102c1565b50505050905090810190601f1680156103095780820380516001836020036101000a031916815260200191505b509250505060405180910390f35b34801561032357600080fd5b5061032c610860565b6040518080602001828103825283818151815260200191508051906020019080838360005b8381101561036c578082015181840152602081019050610351565b50505050905090810190601f1680156103995780820380516001836020036101000a031916815260200191505b509250505060405180910390f35b3480156103b357600080fd5b506103bc6108fe565b604051808215151515815260200191505060405180910390f35b3480156103e257600080fd5b50610417600480360381019080803573ffffffffffffffffffffffffffffffffffffffff16906020019092919050505061090a565b6040518082815260200191505060405180910390f35b34801561043957600080fd5b50610442610922565b6040518080602001828103825283818151815260200191508051906020019080838360005b83811015610482578082015181840152602081019050610467565b50505050905090810190601f1680156104af5780820380516001836020036101000a031916815260200191505b509250505060405180910390f35b3480156104c957600080fd5b506104d26109c0565b604051808215151515815260200191505060405180910390f35b3480156104f857600080fd5b506105016109d3565b6040518082815260200191505060405180910390f35b34801561052357600080fd5b5061052c6109d9565b6040518082815260200191505060405180910390f35b34801561054e57600080fd5b506105576109df565b604051808273ffffffffffffffffffffffffffffffffffffffff1673ffffffffffffffffffffffffffffffffffffffff16815260200191505060405180910390f35b3480156105a557600080fd5b506105ae610a04565b604051808215151515815260200191505060405180910390f35b3480156105d457600080fd5b506105dd610a17565b6040518082815260200191505060405180910390f35b3480156105ff57600080fd5b50610608610a24565b005b6000600860003373ffffffffffffffffffffffffffffffffffffffff1673ffffffffffffffffffffffffffffffffffffffff1681526020019081526020016000205414156106b95760093390806001815401808255809150509060018203906000526020600020016000909192909190916101000a81548173ffffffffffffffffffffffffffffffffffffffff021916908373ffffffffffffffffffffffffffffffffffffffff160217905550505b565b6005544210151561077c57600354600454101515610760576001600760006101000a81548160ff0219169083151502179055506000809054906101000a900473ffffffffffffffffffffffffffffffffffffffff1673ffffffffffffffffffffffffffffffffffffffff167f655cc366c2a16e8b3fe61a1d71b77613e15ab137cd4e476fc18ce3b2c4e847116004546040518082815260200191505060405180910390a25b6001600760016101000a81548160ff0219169083151502179055505b565b60055481565b60098181548110151561079357fe5b906000526020600020016000915054906101000a900473ffffffffffffffffffffffffffffffffffffffff1681565b60018054600181600116156101000203166002900480601f0160208091040260200160405190810160405280929190818152602001828054600181600116156101000203166002900480156108585780601f1061082d57610100808354040283529160200191610858565b820191906000526020600020905b81548152906001019060200180831161083b57829003601f168201915b505050505081565b60068054600181600116156101000203166002900480601f0160208091040260200160405190810160405280929190818152602001828054600181600116156101000203166002900480156108f65780601f106108cb576101008083540402835291602001916108f6565b820191906000526020600020905b8154815290600101906020018083116108d957829003601f168201915b505050505081565b60006005544211905090565b60086020528060005260406000206000915090505481565b60028054600181600116156101000203166002900480601f0160208091040260200160405190810160405280929190818152602001828054600181600116156101000203166002900480156109b85780601f1061098d576101008083540402835291602001916109b8565b820191906000526020600020905b81548152906001019060200180831161099b57829003601f168201915b505050505081565b600760019054906101000a900460ff1681565b60035481565b60045481565b6000809054906101000a900473ffffffffffffffffffffffffffffffffffffffff1681565b600760009054906101000a900460ff1681565b6000600980549050905090565b600060055442101515610d1157600760009054906101000a900460ff161515610baf57600860003373ffffffffffffffffffffffffffffffffffffffff1673ffffffffffffffffffffffffffffffffffffffff1681526020019081526020016000205490506000600860003373ffffffffffffffffffffffffffffffffffffffff1673ffffffffffffffffffffffffffffffffffffffff168152602001908152602001600020819055506000811115610bae573373ffffffffffffffffffffffffffffffffffffffff166108fc829081150290604051600060405180830381858888f1935050505015610b6857600015153373ffffffffffffffffffffffffffffffffffffffff167fc6c8cdc73e475586adbde0de9cf617d7015acc6e38598292ea9033a73dbc868c836040518082815260200191505060405180910390a3610bad565b80600860003373ffffffffffffffffffffffffffffffffffffffff1673ffffffffffffffffffffffffffffffffffffffff168152602001908152602001600020819055505b5b5b600760009054906101000a900460ff168015610c1757503373ffffffffffffffffffffffffffffffffffffffff166000809054906101000a900473ffffffffffffffffffffffffffffffffffffffff1673ffffffffffffffffffffffffffffffffffffffff16145b15610d10576000809054906101000a900473ffffffffffffffffffffffffffffffffffffffff1673ffffffffffffffffffffffffffffffffffffffff166108fc6004549081150290604051600060405180830381858888f1935050505015610cf357600015156000809054906101000a900473ffffffffffffffffffffffffffffffffffffffff1673ffffffffffffffffffffffffffffffffffffffff167fc6c8cdc73e475586adbde0de9cf617d7015acc6e38598292ea9033a73dbc868c6004546040518082815260200191505060405180910390a3610d0f565b6000600760006101000a81548160ff0219169083151502179055505b5b5b505600a165627a7a72305820282fe44a2cab898f9a567816f66e2d6165b7488d32ec5d908c6590389309adaa0029a165627a7a72305820202167e21c14e98f1f157be5dd2e629dcc889df09d59433a733c2dd0a9fac9110029",
  "source": "pragma solidity ^0.4.20;\n\nimport \"./CrowdSale.sol\";\n\ncontract CrowdSaleApp {\n    address public owner;\n    mapping(address => string) public creators;\n\n    event LogCrowdSaleCreated(\n        address contractAddr,\n        address indexed creator,\n        string title,\n        string description,\n        uint fundingGoalInEthers,\n        uint durationInMinutes,\n        string thumbnailHash\n    );\n    event LogCreatorCreated(address indexed creator, string contentHash);\n\n    modifier onlyCreator() {\n        bytes memory creatorHash = bytes(creators[msg.sender]);\n        require(creatorHash.length > 0);\n        _;\n    }\n\n    constructor() public {\n        owner = msg.sender;\n    }\n\n    function createCrowdSale(\n        string _title,\n        string _description,\n        uint _fundingGoalInEthers,\n        uint _durationInMinutes,\n        string _thumbnailHash\n    )\n    public\n    onlyCreator\n    returns (bool) {\n        address contractAddr = new CrowdSale(_title, _description, _fundingGoalInEthers, _durationInMinutes, _thumbnailHash);\n\n        emit LogCrowdSaleCreated(\n            contractAddr,\n            msg.sender,\n            _title,\n            _description,\n            _fundingGoalInEthers,\n            _durationInMinutes,\n            _thumbnailHash\n        );\n\n        return true;\n    }\n\n    function createCreator(string _infoHash) public {\n        creators[msg.sender] = _infoHash;\n        emit LogCreatorCreated(msg.sender, _infoHash);\n    }\n}",
  "sourcePath": "/Users/linh/Projects/Solidity/hello/contracts/CrowdSaleApp.sol",
  "compiler": {
    "name": "solc",
    "version": "0.4.24+commit.e67f0147.Emscripten.clang"
  },
  "schemaVersion": "2.0.1",
  "updatedAt": "2018-07-15T09:29:05.910Z"
}